:100000000C9434000C9451000C9451000C94510049
:100010000C9451000C9451000C9451000C9451001C
:100020000C9451000C9451000C9451000C9451000C
:100030000C9451000C9451000C9451000C945100FC
:100040000C9451000C9451000C940A010C94510032
:100050000C9451000C9451000C9451000C945100DC
:100060000C9451000C94510011241FBECFEFD8E026
:10007000DEBFCDBF11E0A0E0B1E0E6EBF3E002C0EF
:1000800005900D92A63DB107D9F712E0A6EDB1E0BB
:1000900001C01D92A931B107E1F70E9465000C94DF
:1000A000D9010C940000DC01FB01423059F420E03E
:1000B00090818C91981321E081E0282791811196FD
:1000C0008C91981320E0822F08956F927F928F92E7
:1000D0009F92AF92BF92CF92DF92EF92FF920F93D7
:1000E0001F93DF93CF93CDB7DEB7C050D1400FB68B
:1000F000F894DEBF0FBECDBFDE011196E5E5F1E05D
:1001000080E101900D928150E1F7FE01719680E34C
:10011000DF011D928A95E9F7DE01AF5BBF4FE5E98C
:10012000F1E087E001900D928150E1F789E3FE0153
:10013000E85BFF4FDF011D928A95E9F760E875E201
:1001400080E090E00E94360120E9A22E21E0B22E4C
:100150008E010F531F4F91E8C92ED12CCC0EDD1EFE
:100160003E010894611C711C81E4882E912C8C0E38
:100170009D1E80E091E00E9461010E94560188234B
:10018000E1F388E893E1F5013197F1F70197D9F7A9
:10019000C8010E949901E82EE82FFF27E7FDF0959E
:1001A000E00FF11F108286E191E00E9461010E9440
:1001B00056018823E1F3C6010E949901F82E88E8D0
:1001C00093E1F5013197F1F70197D9F7EF2DFF276B
:1001D000E7FDF095EC0DFD1D1082C301B8014E2D19
:1001E0000E945300882389F0C401B6014F2D0E945C
:1001F0005300882351F08BE291E00E946101C80115
:100200000E94610188E391E002C08CE391E00E94CA
:100210006101AFCF1F920F920FB60F9211248F93EF
:100220009F93EF93FF938091D8019091C600E82FA0
:10023000F0E0E752FE4F90838F5F8093D80180916A
:10024000D8018F738093D8018091D601803428F42F
:100250008091D6018F5F8093D601FF91EF919F919E
:100260008F910F900FBE0F901F9018959B01AC01BE
:1002700080E28093C00088E98093C10086E080938B
:10028000C20084E0220F331F441F551F8A95D1F707
:1002900060E074E284EF90E00E94B70121503040AA
:1002A0003093C5002093C400789408958091D601BE
:1002B0000895982F8091C00085FFFCCF9093C600D1
:1002C0000895FC0107C08091C00085FFFCCF90938A
:1002D000C600319690819923B1F708959C01F901E8
:1002E0002F5F3F4F9491992339F08091C00085FF93
:1002F000FCCF9093C600F3CF08958091D601882358
:1003000011F4EFEF14C08091D701E82FF0E0E7522D
:10031000FE4FE0818F5F8093D7018091D7018F736B
:100320008093D7018091D60181508093D6018E2F82
:100330000895EF92FF921F93CF93DF937C0110E01B
:1003400006C00E947D01CE0DDF1D88831F5F809156
:10035000D601C12FD0E08823A1F7CE0DDF1D188272
:10036000812FDF91CF911F91FF90EF900895A1E22F
:100370001A2EAA1BBB1BFD010DC0AA1FBB1FEE1F1F
:10038000FF1FA217B307E407F50720F0A21BB30B6A
:10039000E40BF50B661F771F881F991F1A9469F7E6
:1003A00060957095809590959B01AC01BD01CF0142
:0603B0000895F894FFCF50
:1003B600556E657369746520757365726E616D65DA
:1003C6003A200D200A00556E6573697465206C6FBE
:1003D6007A696E6B753A200D200A00446F62726F5F
:1003E600646F736C692C2000200D0A004C6F676FD8
:1003F60076616E6A65206E657573706A65736E6F79
:1004060020270027007261646F6E6A69636B7365EB
:100416006E696A6100000000000000000000000034
:1004260000000000000000000000000000000000C6
:1004360000000000000000000000000000000000B6
:1004460000000000006B616B747573000000000013
:100456000000000000000000000000000000000096
:100466000000000000000000000000000000000086
:100476000000000000000000000000000000000076
:0604860000000000000070
:00000001FF
